{
  "contractName": "Byx88",
  "abi": [
    {
      "inputs": [],
      "stateMutability": "nonpayable",
      "type": "constructor"
    },
    {
      "anonymous": false,
      "inputs": [
        {
          "indexed": false,
          "internalType": "address",
          "name": "from",
          "type": "address"
        },
        {
          "indexed": false,
          "internalType": "address",
          "name": "to",
          "type": "address"
        }
      ],
      "name": "ChangeOwner",
      "type": "event"
    },
    {
      "anonymous": false,
      "inputs": [
        {
          "indexed": false,
          "internalType": "uint256",
          "name": "id",
          "type": "uint256"
        },
        {
          "indexed": false,
          "internalType": "uint256",
          "name": "amount",
          "type": "uint256"
        }
      ],
      "name": "DepositInit",
      "type": "event"
    },
    {
      "anonymous": false,
      "inputs": [
        {
          "indexed": false,
          "internalType": "uint256",
          "name": "amount",
          "type": "uint256"
        }
      ],
      "name": "FillBalance",
      "type": "event"
    },
    {
      "anonymous": false,
      "inputs": [
        {
          "indexed": false,
          "internalType": "uint256",
          "name": "id",
          "type": "uint256"
        },
        {
          "indexed": false,
          "internalType": "uint256",
          "name": "amount",
          "type": "uint256"
        }
      ],
      "name": "RejectedDeposit",
      "type": "event"
    },
    {
      "anonymous": false,
      "inputs": [
        {
          "indexed": false,
          "internalType": "address payable",
          "name": "to",
          "type": "address"
        },
        {
          "indexed": false,
          "internalType": "uint256",
          "name": "amount",
          "type": "uint256"
        }
      ],
      "name": "Take",
      "type": "event"
    },
    {
      "anonymous": false,
      "inputs": [
        {
          "indexed": false,
          "internalType": "uint256",
          "name": "id",
          "type": "uint256"
        },
        {
          "indexed": false,
          "internalType": "uint256",
          "name": "amount",
          "type": "uint256"
        }
      ],
      "name": "VerifiedDeposit",
      "type": "event"
    },
    {
      "anonymous": false,
      "inputs": [
        {
          "indexed": false,
          "internalType": "uint256",
          "name": "ref",
          "type": "uint256"
        },
        {
          "indexed": false,
          "internalType": "string",
          "name": "source",
          "type": "string"
        },
        {
          "indexed": false,
          "internalType": "address",
          "name": "to",
          "type": "address"
        },
        {
          "indexed": false,
          "internalType": "uint256",
          "name": "amount",
          "type": "uint256"
        }
      ],
      "name": "Withdraw",
      "type": "event"
    },
    {
      "inputs": [],
      "name": "owner",
      "outputs": [
        {
          "internalType": "address payable",
          "name": "",
          "type": "address"
        }
      ],
      "stateMutability": "view",
      "type": "function",
      "constant": true
    },
    {
      "inputs": [],
      "name": "version",
      "outputs": [
        {
          "internalType": "string",
          "name": "",
          "type": "string"
        }
      ],
      "stateMutability": "view",
      "type": "function",
      "constant": true
    },
    {
      "inputs": [],
      "name": "fill",
      "outputs": [
        {
          "internalType": "bool",
          "name": "",
          "type": "bool"
        }
      ],
      "stateMutability": "payable",
      "type": "function",
      "payable": true
    },
    {
      "inputs": [
        {
          "internalType": "uint256",
          "name": "amount",
          "type": "uint256"
        }
      ],
      "name": "take",
      "outputs": [
        {
          "internalType": "bool",
          "name": "",
          "type": "bool"
        }
      ],
      "stateMutability": "nonpayable",
      "type": "function"
    },
    {
      "inputs": [
        {
          "internalType": "string",
          "name": "target",
          "type": "string"
        }
      ],
      "name": "deposit",
      "outputs": [
        {
          "internalType": "uint256",
          "name": "",
          "type": "uint256"
        }
      ],
      "stateMutability": "payable",
      "type": "function",
      "payable": true
    },
    {
      "inputs": [
        {
          "internalType": "uint256",
          "name": "id",
          "type": "uint256"
        }
      ],
      "name": "verify",
      "outputs": [
        {
          "internalType": "bool",
          "name": "",
          "type": "bool"
        }
      ],
      "stateMutability": "nonpayable",
      "type": "function"
    },
    {
      "inputs": [
        {
          "internalType": "uint256",
          "name": "id",
          "type": "uint256"
        }
      ],
      "name": "reject",
      "outputs": [
        {
          "internalType": "bool",
          "name": "",
          "type": "bool"
        }
      ],
      "stateMutability": "nonpayable",
      "type": "function"
    },
    {
      "inputs": [
        {
          "internalType": "uint256",
          "name": "ref",
          "type": "uint256"
        },
        {
          "internalType": "string",
          "name": "source",
          "type": "string"
        },
        {
          "internalType": "address payable",
          "name": "to",
          "type": "address"
        },
        {
          "internalType": "uint256",
          "name": "amount",
          "type": "uint256"
        }
      ],
      "name": "withdraw",
      "outputs": [
        {
          "internalType": "bool",
          "name": "",
          "type": "bool"
        }
      ],
      "stateMutability": "nonpayable",
      "type": "function"
    },
    {
      "inputs": [],
      "name": "getFirstPendingDeposit",
      "outputs": [
        {
          "internalType": "uint256",
          "name": "",
          "type": "uint256"
        }
      ],
      "stateMutability": "view",
      "type": "function",
      "constant": true
    },
    {
      "inputs": [
        {
          "internalType": "uint256",
          "name": "id",
          "type": "uint256"
        }
      ],
      "name": "getDeposit",
      "outputs": [
        {
          "internalType": "address payable",
          "name": "sender",
          "type": "address"
        },
        {
          "internalType": "string",
          "name": "target",
          "type": "string"
        },
        {
          "internalType": "uint256",
          "name": "amount",
          "type": "uint256"
        },
        {
          "internalType": "enum Byx88.Statuses",
          "name": "status",
          "type": "uint8"
        }
      ],
      "stateMutability": "view",
      "type": "function",
      "constant": true
    },
    {
      "inputs": [
        {
          "internalType": "string",
          "name": "newVersion",
          "type": "string"
        }
      ],
      "name": "setVersion",
      "outputs": [],
      "stateMutability": "nonpayable",
      "type": "function"
    },
    {
      "inputs": [
        {
          "internalType": "address payable",
          "name": "target",
          "type": "address"
        }
      ],
      "name": "transferOwnership",
      "outputs": [],
      "stateMutability": "nonpayable",
      "type": "function"
    }
  ],
  "bytecode": "0x60806040526040518060400160405280600581526020017f312e302e300000000000000000000000000000000000000000000000000000008152506001908051906020019062000051929190620000a6565b503480156200005f57600080fd5b50336000806101000a81548173ffffffffffffffffffffffffffffffffffffffff021916908373ffffffffffffffffffffffffffffffffffffffff1602179055506200014c565b828054600181600116156101000203166002900490600052602060002090601f016020900481019282601f10620000e957805160ff19168380011785556200011a565b828001600101855582156200011a579182015b8281111562000119578251825591602001919060010190620000fc565b5b5090506200012991906200012d565b5090565b5b80821115620001485760008160009055506001016200012e565b5090565b61168d806200015c6000396000f3fe6080604052600436106100a75760003560e01c80638da5cb5b116100645780638da5cb5b146103e35780639f9fb96814610424578063a26e11861461050e578063b8adaa11146105dd578063d9c55ce11461062e578063f2fde38b1461064e576100a7565b806321e17d23146100ac5780634fd9efc4146100d757806354fd4d5014610128578063788bc78c146101b857806384a8b6e6146102805780638753367f14610392575b600080fd5b3480156100b857600080fd5b506100c161069f565b6040518082815260200191505060405180910390f35b3480156100e357600080fd5b50610110600480360360208110156100fa57600080fd5b81019080803590602001909291905050506107df565b60405180821515815260200191505060405180910390f35b34801561013457600080fd5b5061013d6109fa565b6040518080602001828103825283818151815260200191508051906020019080838360005b8381101561017d578082015181840152602081019050610162565b50505050905090810190601f1680156101aa5780820380516001836020036101000a031916815260200191505b509250505060405180910390f35b3480156101c457600080fd5b5061027e600480360360208110156101db57600080fd5b81019080803590602001906401000000008111156101f857600080fd5b82018360208201111561020a57600080fd5b8035906020019184600183028401116401000000008311171561022c57600080fd5b91908080601f016020809104026020016040519081016040528093929190818152602001838380828437600081840152601f19601f820116905080830192505050505050509192919290505050610a98565b005b34801561028c57600080fd5b5061037a600480360360808110156102a357600080fd5b8101908080359060200190929190803590602001906401000000008111156102ca57600080fd5b8201836020820111156102dc57600080fd5b803590602001918460018302840111640100000000831117156102fe57600080fd5b91908080601f016020809104026020016040519081016040528093929190818152602001838380828437600081840152601f19601f820116905080830192505050505050509192919290803573ffffffffffffffffffffffffffffffffffffffff16906020019092919080359060200190929190505050610b73565b60405180821515815260200191505060405180910390f35b34801561039e57600080fd5b506103cb600480360360208110156103b557600080fd5b8101908080359060200190929190505050610d60565b60405180821515815260200191505060405180910390f35b3480156103ef57600080fd5b506103f8610f18565b604051808273ffffffffffffffffffffffffffffffffffffffff16815260200191505060405180910390f35b34801561043057600080fd5b5061045d6004803603602081101561044757600080fd5b8101908080359060200190929190505050610f3c565b604051808573ffffffffffffffffffffffffffffffffffffffff1681526020018060200184815260200183600281111561049357fe5b8152602001828103825285818151815260200191508051906020019080838360005b838110156104d05780820151818401526020810190506104b5565b50505050905090810190601f1680156104fd5780820380516001836020036101000a031916815260200191505b509550505050505060405180910390f35b6105c76004803603602081101561052457600080fd5b810190808035906020019064010000000081111561054157600080fd5b82018360208201111561055357600080fd5b8035906020019184600183028401116401000000008311171561057557600080fd5b91908080601f016020809104026020016040519081016040528093929190818152602001838380828437600081840152601f19601f82011690508083019250505050505050919291929050505061104e565b6040518082815260200191505060405180910390f35b3480156105e957600080fd5b506106166004803603602081101561060057600080fd5b81019080803590602001909291905050506111a8565b60405180821515815260200191505060405180910390f35b6106366113b4565b60405180821515815260200191505060405180910390f35b34801561065a57600080fd5b5061069d6004803603602081101561067157600080fd5b81019080803573ffffffffffffffffffffffffffffffffffffffff1690602001909291905050506114b6565b005b60008060009054906101000a900473ffffffffffffffffffffffffffffffffffffffff1673ffffffffffffffffffffffffffffffffffffffff163373ffffffffffffffffffffffffffffffffffffffff1614610763576040517f08c379a00000000000000000000000000000000000000000000000000000000081526004018080602001828103825260118152602001807f466f7262696464656e20616374696f6e7300000000000000000000000000000081525060200191505060405180910390fd5b60005b6002805490508110156107d6576000600281111561078057fe5b6002828154811061078d57fe5b906000526020600020906004020160030160009054906101000a900460ff1660028111156107b757fe5b14156107c957600181019150506107dc565b8080600101915050610766565b50600090505b90565b60008060009054906101000a900473ffffffffffffffffffffffffffffffffffffffff1673ffffffffffffffffffffffffffffffffffffffff163373ffffffffffffffffffffffffffffffffffffffff16146108a3576040517f08c379a00000000000000000000000000000000000000000000000000000000081526004018080602001828103825260118152602001807f466f7262696464656e20616374696f6e7300000000000000000000000000000081525060200191505060405180910390fd5b81471015610919576040517f08c379a00000000000000000000000000000000000000000000000000000000081526004018080602001828103825260138152602001807f496e73756666696369656e7442616c616e63650000000000000000000000000081525060200191505060405180910390fd5b60008054906101000a900473ffffffffffffffffffffffffffffffffffffffff1673ffffffffffffffffffffffffffffffffffffffff166108fc839081150290604051600060405180830381858888f1935050505015801561097f573d6000803e3d6000fd5b507fd69eabfc802f58b2a23d16767d1fcab6551f30a60ab43a24f147d3823d7d036860008054906101000a900473ffffffffffffffffffffffffffffffffffffffff1683604051808373ffffffffffffffffffffffffffffffffffffffff1681526020018281526020019250505060405180910390a1919050565b60018054600181600116156101000203166002900480601f016020809104026020016040519081016040528092919081815260200182805460018160011615610100020316600290048015610a905780601f10610a6557610100808354040283529160200191610a90565b820191906000526020600020905b815481529060010190602001808311610a7357829003601f168201915b505050505081565b60008054906101000a900473ffffffffffffffffffffffffffffffffffffffff1673ffffffffffffffffffffffffffffffffffffffff163373ffffffffffffffffffffffffffffffffffffffff1614610b59576040517f08c379a00000000000000000000000000000000000000000000000000000000081526004018080602001828103825260118152602001807f466f7262696464656e20616374696f6e7300000000000000000000000000000081525060200191505060405180910390fd5b8060019080519060200190610b6f9291906115ba565b5050565b60008060009054906101000a900473ffffffffffffffffffffffffffffffffffffffff1673ffffffffffffffffffffffffffffffffffffffff163373ffffffffffffffffffffffffffffffffffffffff1614610c37576040517f08c379a00000000000000000000000000000000000000000000000000000000081526004018080602001828103825260118152602001807f466f7262696464656e20616374696f6e7300000000000000000000000000000081525060200191505060405180910390fd5b81471015610c4457600080fd5b8273ffffffffffffffffffffffffffffffffffffffff166108fc839081150290604051600060405180830381858888f19350505050158015610c8a573d6000803e3d6000fd5b507e1e3fbdbd61c5a2425d14ff0020dd9bbd2bac70b606f7bd7552534c7bae55df8585858560405180858152602001806020018473ffffffffffffffffffffffffffffffffffffffff168152602001838152602001828103825285818151815260200191508051906020019080838360005b83811015610d17578082015181840152602081019050610cfc565b50505050905090810190601f168015610d445780820380516001836020036101000a031916815260200191505b509550505050505060405180910390a160019050949350505050565b60008060009054906101000a900473ffffffffffffffffffffffffffffffffffffffff1673ffffffffffffffffffffffffffffffffffffffff163373ffffffffffffffffffffffffffffffffffffffff1614610e24576040517f08c379a00000000000000000000000000000000000000000000000000000000081526004018080602001828103825260118152602001807f466f7262696464656e20616374696f6e7300000000000000000000000000000081525060200191505060405180910390fd5b60006002811115610e3157fe5b60028381548110610e3e57fe5b906000526020600020906004020160030160009054906101000a900460ff166002811115610e6857fe5b14610e7257600080fd5b600160028381548110610e8157fe5b906000526020600020906004020160030160006101000a81548160ff02191690836002811115610ead57fe5b02179055507f16bb00b67e7752aab0e2d01547e8ddaf3d7876ec0cbd3159f58f5496852b61da8260028481548110610ee157fe5b906000526020600020906004020160020154604051808381526020018281526020019250505060405180910390a160019050919050565b60008054906101000a900473ffffffffffffffffffffffffffffffffffffffff1681565b60006060600080600060028681548110610f5257fe5b906000526020600020906004020190508060000160009054906101000a900473ffffffffffffffffffffffffffffffffffffffff168160010182600201548360030160009054906101000a900460ff16828054600181600116156101000203166002900480601f0160208091040260200160405190810160405280929190818152602001828054600181600116156101000203166002900480156110375780601f1061100c57610100808354040283529160200191611037565b820191906000526020600020905b81548152906001019060200180831161101a57829003601f168201915b505050505092509450945094509450509193509193565b6000806002805490509050600260405180608001604052803373ffffffffffffffffffffffffffffffffffffffff1681526020018581526020013481526020016000600281111561109b57fe5b815250908060018154018082558091505060019003906000526020600020906004020160009091909190915060008201518160000160006101000a81548173ffffffffffffffffffffffffffffffffffffffff021916908373ffffffffffffffffffffffffffffffffffffffff160217905550602082015181600101908051906020019061112a9291906115ba565b506040820151816002015560608201518160030160006101000a81548160ff0219169083600281111561115957fe5b021790555050507f5c10bf01e38ccbf6b741c50b2c4ef931cac91b18608c55b7530806441484cb518134604051808381526020018281526020019250505060405180910390a180915050919050565b60008060009054906101000a900473ffffffffffffffffffffffffffffffffffffffff1673ffffffffffffffffffffffffffffffffffffffff163373ffffffffffffffffffffffffffffffffffffffff161461126c576040517f08c379a00000000000000000000000000000000000000000000000000000000081526004018080602001828103825260118152602001807f466f7262696464656e20616374696f6e7300000000000000000000000000000081525060200191505060405180910390fd5b600280838154811061127a57fe5b906000526020600020906004020160030160006101000a81548160ff021916908360028111156112a657fe5b0217905550600282815481106112b857fe5b906000526020600020906004020160000160009054906101000a900473ffffffffffffffffffffffffffffffffffffffff1673ffffffffffffffffffffffffffffffffffffffff166108fc6002848154811061131057fe5b9060005260206000209060040201600201549081150290604051600060405180830381858888f1935050505015801561134d573d6000803e3d6000fd5b507f66ad0d395b4dae96ae326f5a103682bacc031a8471599a476ea7018d4caf4623826002848154811061137d57fe5b906000526020600020906004020160020154604051808381526020018281526020019250505060405180910390a160019050919050565b60008060009054906101000a900473ffffffffffffffffffffffffffffffffffffffff1673ffffffffffffffffffffffffffffffffffffffff163373ffffffffffffffffffffffffffffffffffffffff1614611478576040517f08c379a00000000000000000000000000000000000000000000000000000000081526004018080602001828103825260118152602001807f466f7262696464656e20616374696f6e7300000000000000000000000000000081525060200191505060405180910390fd5b7f045b758a1c3a7f4b1cecf439a11c6bd369a54dd393cfa9f8075fc3723354673e346040518082815260200191505060405180910390a16001905090565b60008054906101000a900473ffffffffffffffffffffffffffffffffffffffff1673ffffffffffffffffffffffffffffffffffffffff163373ffffffffffffffffffffffffffffffffffffffff1614611577576040517f08c379a00000000000000000000000000000000000000000000000000000000081526004018080602001828103825260118152602001807f466f7262696464656e20616374696f6e7300000000000000000000000000000081525060200191505060405180910390fd5b806000806101000a81548173ffffffffffffffffffffffffffffffffffffffff021916908373ffffffffffffffffffffffffffffffffffffffff16021790555050565b828054600181600116156101000203166002900490600052602060002090601f016020900481019282601f106115fb57805160ff1916838001178555611629565b82800160010185558215611629579182015b8281111561162857825182559160200191906001019061160d565b5b509050611636919061163a565b5090565b5b8082111561165357600081600090555060010161163b565b509056fea26469706673582212201627616a8da5ff378f3bb690df5a70f8bb4537186536fc0f03522d1f2e2c7aef64736f6c634300060c0033",
  "immutableReferences": {},
  "source": "// SPDX-License-Identifier: MIT\npragma solidity >=0.4.22 <0.8.0;\n\nimport \"@openzeppelin/contracts/math/SafeMath.sol\";\n\ncontract Byx88 {\n    // safe-math from openzeppelin\n    using SafeMath for uint256;\n\n    address payable public owner;\n\n    string public version = \"1.0.0\";\n\n    enum Statuses {PENDING, VERIFIED, REJECTED}\n\n    constructor() public {\n        // init owner on construct\n        owner = msg.sender;\n    }\n\n    /** Deposit structure */\n    struct Deposit {\n        address payable sender;\n        string target; // gwallet account\n        uint256 amount; // in wei\n        Statuses status;\n    }\n\n    /** Withdrawal structure */\n    struct Withdrawal {\n        string source; // gwallet account\n        string target; // eth account\n        uint256 amount; // in wei\n    }\n\n    // mapping(uint256 => Deposit) public deposits;\n\n    Deposit[] deposits;\n\n    function fill() public payable restricted returns (bool) {\n        emit FillBalance(msg.value);\n        return true;\n    }\n\n    function take(uint256 amount) public restricted returns (bool) {\n        require(address(this).balance >= amount, \"InsufficientBalance\");\n        owner.transfer(amount);\n        emit Take(owner, amount);\n    }\n\n    // init deposit\n    function deposit(string memory target) public payable returns (uint256) {\n        uint256 id = deposits.length;\n        deposits.push(Deposit(msg.sender, target, msg.value, Statuses.PENDING));\n        emit DepositInit(id, msg.value);\n        return id;\n    }\n\n    // verify the transaction by its ID\n    function verify(uint256 id) public restricted returns (bool) {\n        require(deposits[id].status == Statuses.PENDING);\n        deposits[id].status = Statuses.VERIFIED;\n        emit VerifiedDeposit(id, deposits[id].amount);\n        return true;\n    }\n\n    // reject the transaction by its ID\n    function reject(uint256 id) public restricted returns (bool) {\n        deposits[id].status = Statuses.REJECTED;\n        deposits[id].sender.transfer(deposits[id].amount);\n        emit RejectedDeposit(id, deposits[id].amount);\n        return true;\n    }\n\n    function withdraw(\n        uint256 ref,\n        string memory source,\n        address payable to,\n        uint256 amount\n    ) public restricted returns (bool) {\n        require(address(this).balance >= amount);\n        to.transfer(amount);\n        emit Withdraw(ref, source, to, amount);\n        return true;\n    }\n\n    function getFirstPendingDeposit() public view restricted returns (uint256) {\n        for (uint256 i = 0; i < deposits.length; i++) {\n            if (deposits[i].status == Statuses.PENDING) {\n                return i + 1;\n            }\n        }\n        return 0;\n    }\n\n    function getDeposit(uint256 id)\n        public\n        view\n        returns (\n            address payable sender,\n            string memory target, // gwallet account\n            uint256 amount, // in wei\n            Statuses status\n        )\n    {\n        Deposit storage d = deposits[id];\n        return (d.sender, d.target, d.amount, d.status);\n    }\n\n    function setVersion(string memory newVersion) public restricted {\n        version = newVersion;\n    }\n\n    function transferOwnership(address payable target) public restricted {\n        owner = target;\n    }\n\n    modifier restricted() {\n        require(msg.sender == owner, \"Forbidden actions\");\n        _;\n    }\n\n    // id: deposit id\n    event DepositInit(uint256 id, uint256 amount);\n\n    // id: deposit id\n    event VerifiedDeposit(uint256 id, uint256 amount);\n\n    // id: deposit id\n    event RejectedDeposit(uint256 id, uint256 amount);\n\n    // sender: eth account\n    // source: gwallet account\n    // amount: eth amount, in wei\n    event Withdraw(uint256 ref, string source, address to, uint256 amount);\n\n    // transfer ETH to contract\n    event FillBalance(uint256 amount);\n\n    // transfer balance from contract to owner\n    event Take(address payable to, uint256 amount);\n\n    event ChangeOwner(address from, address to);\n}\n",
  "sourcePath": "/work/byx88/contracts/Byx88.sol",
  "compiler": {
    "name": "solc",
    "version": "0.6.12+commit.27d51765.Emscripten.clang"
  },
  "schemaVersion": "3.3.1",
  "updatedAt": "2020-11-05T13:01:09.886Z",
  "networkType": "ethereum",
  "devdoc": {
    "kind": "dev",
    "methods": {},
    "version": 1
  },
  "userdoc": {
    "kind": "user",
    "methods": {},
    "version": 1
  }
}